{
  "contractName": "IdentityLight",
  "abi": [
    {
      "constant": true,
      "inputs": [],
      "name": "status",
      "outputs": [
        {
          "name": "",
          "type": "bool"
        }
      ],
      "payable": false,
      "stateMutability": "view",
      "type": "function",
      "signature": "0x200d2ed2"
    },
    {
      "constant": true,
      "inputs": [
        {
          "name": "",
          "type": "uint256"
        }
      ],
      "name": "endorsedUsers",
      "outputs": [
        {
          "name": "endorser",
          "type": "address"
        },
        {
          "name": "endorsee",
          "type": "address"
        },
        {
          "name": "endorseeSince",
          "type": "uint256"
        }
      ],
      "payable": false,
      "stateMutability": "view",
      "type": "function",
      "signature": "0x43d7430d"
    },
    {
      "constant": true,
      "inputs": [],
      "name": "numberOfEndorsees",
      "outputs": [
        {
          "name": "",
          "type": "uint256"
        }
      ],
      "payable": false,
      "stateMutability": "view",
      "type": "function",
      "signature": "0x4ecf55d2"
    },
    {
      "constant": true,
      "inputs": [
        {
          "name": "",
          "type": "address"
        }
      ],
      "name": "userIdentityHash",
      "outputs": [
        {
          "name": "",
          "type": "bytes32"
        }
      ],
      "payable": false,
      "stateMutability": "view",
      "type": "function",
      "signature": "0x5a954a33"
    },
    {
      "constant": true,
      "inputs": [],
      "name": "numberOfUsers",
      "outputs": [
        {
          "name": "",
          "type": "uint256"
        }
      ],
      "payable": false,
      "stateMutability": "view",
      "type": "function",
      "signature": "0x75ce46a7"
    },
    {
      "constant": true,
      "inputs": [],
      "name": "owner",
      "outputs": [
        {
          "name": "",
          "type": "address"
        }
      ],
      "payable": false,
      "stateMutability": "view",
      "type": "function",
      "signature": "0x8da5cb5b"
    },
    {
      "constant": true,
      "inputs": [
        {
          "name": "",
          "type": "address"
        }
      ],
      "name": "endorsedUserId",
      "outputs": [
        {
          "name": "",
          "type": "uint256"
        }
      ],
      "payable": false,
      "stateMutability": "view",
      "type": "function",
      "signature": "0xed4ac05c"
    },
    {
      "anonymous": false,
      "inputs": [
        {
          "indexed": false,
          "name": "UserAddress",
          "type": "address"
        },
        {
          "indexed": false,
          "name": "rootIdentityHash",
          "type": "bytes32"
        }
      ],
      "name": "IdentityAdded",
      "type": "event",
      "signature": "0x789af25dd54f1f1187e6acf639797c5b7cfd5955e50f7c10e5cb5da7f44261b5"
    },
    {
      "anonymous": false,
      "inputs": [
        {
          "indexed": false,
          "name": "Endorser",
          "type": "address"
        },
        {
          "indexed": false,
          "name": "Endorsee",
          "type": "address"
        }
      ],
      "name": "UserEndorsed",
      "type": "event",
      "signature": "0x84ff9f6925f30582668c806da04f9b9acb3650e9a2a8dbeba7213843dde403c1"
    },
    {
      "anonymous": false,
      "inputs": [
        {
          "indexed": false,
          "name": "UserAddress",
          "type": "address"
        }
      ],
      "name": "EndorseeRemoved",
      "type": "event",
      "signature": "0x87ce36a58793d4fe6f059285a61145211a8a9528f1a495be779bd0befd70faca"
    },
    {
      "anonymous": false,
      "inputs": [
        {
          "indexed": false,
          "name": "Status",
          "type": "string"
        }
      ],
      "name": "StatusChanged",
      "type": "event",
      "signature": "0xea6f92f49f3f6b3faa4cb02c9366b537e5c42ee43006fb8f18fb7a3ecb6c6a92"
    },
    {
      "constant": false,
      "inputs": [
        {
          "name": "deactivate",
          "type": "bool"
        }
      ],
      "name": "changeStatus",
      "outputs": [],
      "payable": false,
      "stateMutability": "nonpayable",
      "type": "function",
      "signature": "0x9b3de49b"
    },
    {
      "constant": false,
      "inputs": [
        {
          "name": "rootHashIdentity",
          "type": "bytes32"
        }
      ],
      "name": "addIdentity",
      "outputs": [],
      "payable": false,
      "stateMutability": "nonpayable",
      "type": "function",
      "signature": "0x261005f9"
    },
    {
      "constant": false,
      "inputs": [
        {
          "name": "endorseeAddress",
          "type": "address"
        }
      ],
      "name": "addEndorsee",
      "outputs": [],
      "payable": false,
      "stateMutability": "nonpayable",
      "type": "function",
      "signature": "0x73935a30"
    }
  ],
  "bytecode": "0x608060405234801561001057600080fd5b50610981806100206000396000f3fe6080604052600436106100a4576000357c0100000000000000000000000000000000000000000000000000000000900463ffffffff168063200d2ed2146100a9578063261005f9146100d857806343d7430d146101135780634ecf55d2146101c85780635a954a33146101f357806373935a301461025857806375ce46a7146102a95780638da5cb5b146102d45780639b3de49b1461032b578063ed4ac05c14610368575b600080fd5b3480156100b557600080fd5b506100be6103cd565b604051808215151515815260200191505060405180910390f35b3480156100e457600080fd5b50610111600480360360208110156100fb57600080fd5b81019080803590602001909291905050506103e0565b005b34801561011f57600080fd5b5061014c6004803603602081101561013657600080fd5b8101908080359060200190929190505050610492565b604051808473ffffffffffffffffffffffffffffffffffffffff1673ffffffffffffffffffffffffffffffffffffffff1681526020018373ffffffffffffffffffffffffffffffffffffffff1673ffffffffffffffffffffffffffffffffffffffff168152602001828152602001935050505060405180910390f35b3480156101d457600080fd5b506101dd61050b565b6040518082815260200191505060405180910390f35b3480156101ff57600080fd5b506102426004803603602081101561021657600080fd5b81019080803573ffffffffffffffffffffffffffffffffffffffff169060200190929190505050610511565b6040518082815260200191505060405180910390f35b34801561026457600080fd5b506102a76004803603602081101561027b57600080fd5b81019080803573ffffffffffffffffffffffffffffffffffffffff169060200190929190505050610529565b005b3480156102b557600080fd5b506102be610783565b6040518082815260200191505060405180910390f35b3480156102e057600080fd5b506102e9610789565b604051808273ffffffffffffffffffffffffffffffffffffffff1673ffffffffffffffffffffffffffffffffffffffff16815260200191505060405180910390f35b34801561033757600080fd5b506103666004803603602081101561034e57600080fd5b810190808035151590602001909291905050506107ae565b005b34801561037457600080fd5b506103b76004803603602081101561038b57600080fd5b81019080803573ffffffffffffffffffffffffffffffffffffffff169060200190929190505050610896565b6040518082815260200191505060405180910390f35b600360009054906101000a900460ff1681565b80600460003373ffffffffffffffffffffffffffffffffffffffff1673ffffffffffffffffffffffffffffffffffffffff168152602001908152602001600020819055507f789af25dd54f1f1187e6acf639797c5b7cfd5955e50f7c10e5cb5da7f44261b53382604051808373ffffffffffffffffffffffffffffffffffffffff1673ffffffffffffffffffffffffffffffffffffffff1681526020018281526020019250505060405180910390a150565b6006818154811015156104a157fe5b90600052602060002090600302016000915090508060000160009054906101000a900473ffffffffffffffffffffffffffffffffffffffff16908060010160009054906101000a900473ffffffffffffffffffffffffffffffffffffffff16908060020154905083565b60025481565b60046020528060005260406000206000915090505481565b6000600560008373ffffffffffffffffffffffffffffffffffffffff1673ffffffffffffffffffffffffffffffffffffffff16815260200190815260200160002054905060008114156105d657600680549050600560008473ffffffffffffffffffffffffffffffffffffffff1673ffffffffffffffffffffffffffffffffffffffff16815260200190815260200160002081905550600680548091906001016105d391906108ae565b90505b6060604051908101604052803373ffffffffffffffffffffffffffffffffffffffff1681526020018373ffffffffffffffffffffffffffffffffffffffff1681526020014281525060068281548110151561062d57fe5b906000526020600020906003020160008201518160000160006101000a81548173ffffffffffffffffffffffffffffffffffffffff021916908373ffffffffffffffffffffffffffffffffffffffff16021790555060208201518160010160006101000a81548173ffffffffffffffffffffffffffffffffffffffff021916908373ffffffffffffffffffffffffffffffffffffffff160217905550604082015181600201559050507f84ff9f6925f30582668c806da04f9b9acb3650e9a2a8dbeba7213843dde403c13383604051808373ffffffffffffffffffffffffffffffffffffffff1673ffffffffffffffffffffffffffffffffffffffff1681526020018273ffffffffffffffffffffffffffffffffffffffff1673ffffffffffffffffffffffffffffffffffffffff1681526020019250505060405180910390a16002600081548092919060010191905055505050565b60015481565b6000809054906101000a900473ffffffffffffffffffffffffffffffffffffffff1681565b6000809054906101000a900473ffffffffffffffffffffffffffffffffffffffff1673ffffffffffffffffffffffffffffffffffffffff163373ffffffffffffffffffffffffffffffffffffffff1614151561080957600080fd5b801561082b576000600360006101000a81548160ff0219169083151502179055505b7fea6f92f49f3f6b3faa4cb02c9366b537e5c42ee43006fb8f18fb7a3ecb6c6a9260405180806020018281038252601a8152602001807f536d61727420436f6e747261637420446561637469766174656400000000000081525060200191505060405180910390a150565b60056020528060005260406000206000915090505481565b8154818355818111156108db576003028160030283600052602060002091820191016108da91906108e0565b5b505050565b61095291905b8082111561094e57600080820160006101000a81549073ffffffffffffffffffffffffffffffffffffffff02191690556001820160006101000a81549073ffffffffffffffffffffffffffffffffffffffff02191690556002820160009055506003016108e6565b5090565b9056fea165627a7a72305820d17541171653d69849ba059ec2abbb0f43915febf224543d49a1780c6c1807a80029",
  "source": "pragma solidity >=0.4.22 <0.6.0;\ncontract IdentityLight {\naddress public owner;\nuint public numberOfUsers;\n    uint public numberOfEndorsees;\n    bool public status;    \n    \n mapping (address => bytes32) public userIdentityHash;\n    mapping (address => uint) public endorsedUserId;\n    \n    Endorse[] public endorsedUsers;\n\n\n\n\n    event IdentityAdded(address UserAddress,bytes32 rootIdentityHash);\n    event UserEndorsed(address Endorser, address Endorsee);\n    event EndorseeRemoved(address UserAddress);\n    event StatusChanged(string Status);\n\n\n    struct Endorse {\n        address endorser;\n        address endorsee;\n         \n        uint endorseeSince;\n    }\n    \n    \n     modifier onlyOwner {\n        require(msg.sender == owner);\n        _;\n    }\n    \n    \n    function changeStatus (bool deactivate) onlyOwner public {\n        if (deactivate)\n        {status = false;}\n      emit   StatusChanged(\"Smart Contract Deactivated\");\n    }\n    \n    function addIdentity (bytes32 rootHashIdentity) public\n    {\n        userIdentityHash[msg.sender]=rootHashIdentity;\n        emit IdentityAdded(msg.sender,rootHashIdentity);\n    }\n \n\n\n \n\n\n function addEndorsee(address endorseeAddress)  public {\n        uint eid = endorsedUserId[endorseeAddress];\n        if (eid == 0) {\n            endorsedUserId[endorseeAddress] = endorsedUsers.length;\n            eid = endorsedUsers.length++;\n        }\n        endorsedUsers[eid] = Endorse({endorser: msg.sender, endorsee: endorseeAddress,  endorseeSince: now});\n       emit  UserEndorsed(msg.sender, endorseeAddress);\n        numberOfEndorsees++;\n    }\n\n\n\n//  function setInstructor(string memory _fName, uint _age) public {\n//   fName = _fName;\n//   age = _age;\n//   emit Instructor (_fName, _age); \n//  }\n \n//  function getInstructor()   public view returns (string memory, uint ) {\n     \n//   return (fName, age);\n//  }\n \n  \n}\n",
  "sourcePath": "/home/gheidar/Desktop/vueJS/project/contracts/IdentityLight.sol",
  "compiler": {
    "name": "solc",
    "version": "0.5.0+commit.1d4f565a.Emscripten.clang"
  },
  "schemaVersion": "3.0.2",
  "updatedAt": "2019-02-25T19:58:41.461Z",
  "devdoc": {
    "methods": {}
  },
  "userdoc": {
    "methods": {}
  }
}